{
  "contractName": "Rating",
  "abi": [
    {
      "constant": true,
      "inputs": [
        {
          "name": "",
          "type": "bytes32"
        }
      ],
      "name": "ratings_recieved",
      "outputs": [
        {
          "name": "",
          "type": "uint8"
        }
      ],
      "payable": false,
      "stateMutability": "view",
      "type": "function",
      "signature": "0x5f7cb615"
    },
    {
      "constant": true,
      "inputs": [
        {
          "name": "",
          "type": "uint256"
        }
      ],
      "name": "movie_list",
      "outputs": [
        {
          "name": "",
          "type": "bytes32"
        }
      ],
      "payable": false,
      "stateMutability": "view",
      "type": "function",
      "signature": "0xb7652c91"
    },
    {
      "inputs": [
        {
          "name": "movie_names",
          "type": "bytes32[]"
        }
      ],
      "payable": false,
      "stateMutability": "nonpayable",
      "type": "constructor",
      "signature": "constructor"
    },
    {
      "constant": true,
      "inputs": [
        {
          "name": "movie",
          "type": "bytes32"
        }
      ],
      "name": "total_votes_for",
      "outputs": [
        {
          "name": "",
          "type": "uint8"
        }
      ],
      "payable": false,
      "stateMutability": "view",
      "type": "function",
      "signature": "0xd10414f3"
    },
    {
      "constant": false,
      "inputs": [
        {
          "name": "movie",
          "type": "bytes32"
        }
      ],
      "name": "vote_for",
      "outputs": [],
      "payable": false,
      "stateMutability": "nonpayable",
      "type": "function",
      "signature": "0x91214e20"
    }
  ],
  "bytecode": "0x608060405234801561001057600080fd5b506040516103983803806103988339810180604052602081101561003357600080fd5b81019080805164010000000081111561004b57600080fd5b8281019050602081018481111561006157600080fd5b815185602082028301116401000000008211171561007e57600080fd5b5050929190505050806001908051906020019061009c9291906100a3565b5050610115565b8280548282559060005260206000209081019282156100df579160200282015b828111156100de5782518255916020019190600101906100c3565b5b5090506100ec91906100f0565b5090565b61011291905b8082111561010e5760008160009055506001016100f6565b5090565b90565b610274806101246000396000f3fe608060405260043610610062576000357c0100000000000000000000000000000000000000000000000000000000900463ffffffff1680635f7cb6151461006757806391214e20146100bc578063b7652c91146100f7578063d10414f314610146575b600080fd5b34801561007357600080fd5b506100a06004803603602081101561008a57600080fd5b810190808035906020019092919050505061019b565b604051808260ff1660ff16815260200191505060405180910390f35b3480156100c857600080fd5b506100f5600480360360208110156100df57600080fd5b81019080803590602001909291905050506101bb565b005b34801561010357600080fd5b506101306004803603602081101561011a57600080fd5b81019080803590602001909291905050506101fc565b6040518082815260200191505060405180910390f35b34801561015257600080fd5b5061017f6004803603602081101561016957600080fd5b810190808035906020019092919050505061021f565b604051808260ff1660ff16815260200191505060405180910390f35b60006020528060005260406000206000915054906101000a900460ff1681565b600160008083815260200190815260200160002060008282829054906101000a900460ff160192506101000a81548160ff021916908360ff16021790555050565b60018181548110151561020b57fe5b906000526020600020016000915090505481565b600080600083815260200190815260200160002060009054906101000a900460ff16905091905056fea165627a7a72305820c97abbe247dfc63d0b533b8fb3739bfbbd73ce34045cefcf934324c844fa4b8e0029",
  "source": "pragma solidity ^0.5.0;\n// Version of compiler for this code\n\n// Create a contract\ncontract Rating {\n\t// mapping field (equivalent to an associative array or hash)\n\n\tmapping (bytes32 => uint8) public ratings_recieved;\n\n\t// list of movies\n\tbytes32[] public movie_list;\n\n\t/* A constructor which will be called when the contract is\n\tdeployed in the blockchain. While deploying the contract, a \n\tlist of movie names will be passed for which user ratings will \\\n\tbe recorded.\n\t*/\n\n\tconstructor (bytes32[] memory movie_names) public {\n\t\tmovie_list = movie_names;\n\t}\n\n\t// A function that returns the number of ratings recieved for a \n\t// particular movie\n\tfunction total_votes_for(bytes32 movie) view public returns (uint8) {\n\t\treturn ratings_recieved[movie];\n\t}\n\n\t// A function to increment vote count by one (for the given movie)\n\tfunction vote_for(bytes32 movie) public {\n\t\tratings_recieved[movie] += 1;\n\t}\n} ",
  "sourcePath": "/home/divesh_pandey/githubData/First-Blockchain-Project/rating/contracts/Rating.sol",
  "compiler": {
    "name": "solc",
    "version": "0.5.0+commit.1d4f565a.Emscripten.clang"
  },
  "schemaVersion": "3.0.1",
  "updatedAt": "2019-01-23T17:06:59.636Z",
  "devdoc": {
    "methods": {}
  },
  "userdoc": {
    "methods": {}
  }
}